{
  "transactions": [
    {
      "hash": "0x0af7136f735ce453d5ca7e5ba2150c5f3b2d1c9011c0a0787dda1586cccb97a6",
      "transactionType": "CREATE",
      "contractName": "CounterV2",
      "contractAddress": "0xb09775b1ebfad5f3f7878cb0050b5425f94a574d",
      "function": null,
      "arguments": null,
      "transaction": {
        "from": "0x2b754def498d4b6adada538f01727ddf67d91a7d",
        "gas": "0xcbb3e",
        "value": "0x0",
        "input": "0x60a0604052306080523480156012575f80fd5b50608051610aa56100395f395f81816103fd01528181610426015261056a0152610aa55ff3fe6080604052600436106100a5575f3560e01c8063890eba6811610062578063890eba681461013f5780638da5cb5b14610168578063ad3cb1cc146101ae578063d09de08a146101eb578063d79e0a52146101ff578063f2fde38b14610216575f80fd5b80633fb5c1cb146100a95780634f1ef286146100c957806352d1902d146100dc578063715018a6146101035780638129fc1c146101175780638381f58a1461012b575b5f80fd5b3480156100b4575f80fd5b506100c76100c33660046108ae565b5f55565b005b6100c76100d73660046108f4565b610235565b3480156100e7575f80fd5b506100f0610254565b6040519081526020015b60405180910390f35b34801561010e575f80fd5b506100c761026f565b348015610122575f80fd5b506100c7610282565b348015610136575f80fd5b506100f05f5481565b34801561014a575f80fd5b506001546101589060ff1681565b60405190151581526020016100fa565b348015610173575f80fd5b507f9016d09d72d40fdae2fd8ceac6b6234c7706214fd39c1cd1e609a0528c199300546040516001600160a01b0390911681526020016100fa565b3480156101b9575f80fd5b506101de604051806040016040528060058152602001640352e302e360dc1b81525081565b6040516100fa91906109b0565b3480156101f6575f80fd5b506100c761039b565b34801561020a575f80fd5b5060015460ff16610158565b348015610221575f80fd5b506100c76102303660046109e5565b6103b0565b61023d6103f2565b61024682610496565b610250828261049e565b5050565b5f61025d61055f565b505f80516020610a5083398151915290565b6102776105a8565b6102805f610603565b565b7ff0c57e16840df040f15088dc2f81fe391c3923bec73e23a9662efc9c229c6a008054600160401b810460ff16159067ffffffffffffffff165f811580156102c75750825b90505f8267ffffffffffffffff1660011480156102e35750303b155b9050811580156102f1575080155b1561030f5760405163f92ee8a960e01b815260040160405180910390fd5b845467ffffffffffffffff19166001178555831561033957845460ff60401b1916600160401b1785555b61034233610673565b61034a610684565b60025f55831561039457845460ff60401b19168555604051600181527fc7f505b2f371ae2175ee4913f4499e1f2633a7b5936321eed1cdaeb6115181d29060200160405180910390a15b5050505050565b5f805490806103a9836109fe565b9190505550565b6103b86105a8565b6001600160a01b0381166103e657604051631e4fbdf760e01b81525f60048201526024015b60405180910390fd5b6103ef81610603565b50565b306001600160a01b037f000000000000000000000000000000000000000000000000000000000000000016148061047857507f00000000000000000000000000000000000000000000000000000000000000006001600160a01b031661046c5f80516020610a50833981519152546001600160a01b031690565b6001600160a01b031614155b156102805760405163703e46dd60e11b815260040160405180910390fd5b6103ef6105a8565b816001600160a01b03166352d1902d6040518163ffffffff1660e01b8152600401602060405180830381865afa9250505080156104f8575060408051601f3d908101601f191682019092526104f591810190610a22565b60015b61052057604051634c9c8ce360e01b81526001600160a01b03831660048201526024016103dd565b5f80516020610a50833981519152811461055057604051632a87526960e21b8152600481018290526024016103dd565b61055a838361068c565b505050565b306001600160a01b037f000000000000000000000000000000000000000000000000000000000000000016146102805760405163703e46dd60e11b815260040160405180910390fd5b336105da7f9016d09d72d40fdae2fd8ceac6b6234c7706214fd39c1cd1e609a0528c199300546001600160a01b031690565b6001600160a01b0316146102805760405163118cdaa760e01b81523360048201526024016103dd565b7f9016d09d72d40fdae2fd8ceac6b6234c7706214fd39c1cd1e609a0528c19930080546001600160a01b031981166001600160a01b03848116918217845560405192169182907f8be0079c531659141344cd1fd0a4f28419497f9722a3daafe3b4186f6b6457e0905f90a3505050565b61067b6106e1565b6103ef8161072a565b6102806106e1565b61069582610732565b6040516001600160a01b038316907fbc7cd75a20ee27fd9adebab32041f755214dbc6bffa90cc0225b39da2e5c2d3b905f90a28051156106d95761055a8282610795565b610250610807565b7ff0c57e16840df040f15088dc2f81fe391c3923bec73e23a9662efc9c229c6a0054600160401b900460ff1661028057604051631afcd79f60e31b815260040160405180910390fd5b6103b86106e1565b806001600160a01b03163b5f0361076757604051634c9c8ce360e01b81526001600160a01b03821660048201526024016103dd565b5f80516020610a5083398151915280546001600160a01b0319166001600160a01b0392909216919091179055565b60605f80846001600160a01b0316846040516107b19190610a39565b5f60405180830381855af49150503d805f81146107e9576040519150601f19603f3d011682016040523d82523d5f602084013e6107ee565b606091505b50915091506107fe858383610826565b95945050505050565b34156102805760405163b398979f60e01b815260040160405180910390fd5b60608261083b5761083682610885565b61087e565b815115801561085257506001600160a01b0384163b155b1561087b57604051639996b31560e01b81526001600160a01b03851660048201526024016103dd565b50805b9392505050565b8051156108955780518082602001fd5b604051630a12f52160e11b815260040160405180910390fd5b5f602082840312156108be575f80fd5b5035919050565b80356001600160a01b03811681146108db575f80fd5b919050565b634e487b7160e01b5f52604160045260245ffd5b5f8060408385031215610905575f80fd5b61090e836108c5565b9150602083013567ffffffffffffffff8082111561092a575f80fd5b818501915085601f83011261093d575f80fd5b81358181111561094f5761094f6108e0565b604051601f8201601f19908116603f01168101908382118183101715610977576109776108e0565b8160405282815288602084870101111561098f575f80fd5b826020860160208301375f6020848301015280955050505050509250929050565b602081525f82518060208401528060208501604085015e5f604082850101526040601f19601f83011684010191505092915050565b5f602082840312156109f5575f80fd5b61087e826108c5565b5f60018201610a1b57634e487b7160e01b5f52601160045260245ffd5b5060010190565b5f60208284031215610a32575f80fd5b5051919050565b5f82518060208501845e5f92019182525091905056fe360894a13ba1a3210667c828492db98dca3e2076cc3735a920a3ca505d382bbca2646970667358221220c4ad5e2fd0ace23f9b73e191eb5e7f180cbc1bb7eb382e14697345906335159864736f6c63430008190033",
        "nonce": "0x83",
        "chainId": "0xaa36a7"
      },
      "additionalContracts": [],
      "isFixedGasLimit": false
    },
    {
      "hash": "0x4a97cb9651e3609bd499c97eaf99deac52954f3521187f6e69977659a0fbe31c",
      "transactionType": "CALL",
      "contractName": null,
      "contractAddress": "0xbbc7b23ea518d4193bcad95e379799e60491c450",
      "function": "UPGRADE_INTERFACE_VERSION()",
      "arguments": [],
      "transaction": {
        "from": "0x2b754def498d4b6adada538f01727ddf67d91a7d",
        "to": "0xbbc7b23ea518d4193bcad95e379799e60491c450",
        "gas": "0x8e61",
        "value": "0x0",
        "input": "0xad3cb1cc",
        "nonce": "0x84",
        "chainId": "0xaa36a7"
      },
      "additionalContracts": [],
      "isFixedGasLimit": false
    },
    {
      "hash": "0x5721069f257f66c7582a85d32e734f0b3feeba92240a7ee7adc4e152ed684ba9",
      "transactionType": "CALL",
      "contractName": null,
      "contractAddress": "0xbbc7b23ea518d4193bcad95e379799e60491c450",
      "function": "upgradeToAndCall(address,bytes)",
      "arguments": [
        "0xB09775b1EbfAD5f3F7878Cb0050b5425f94A574d",
        "0x"
      ],
      "transaction": {
        "from": "0x2b754def498d4b6adada538f01727ddf67d91a7d",
        "to": "0xbbc7b23ea518d4193bcad95e379799e60491c450",
        "gas": "0xd6b7",
        "value": "0x0",
        "input": "0x4f1ef286000000000000000000000000b09775b1ebfad5f3f7878cb0050b5425f94a574d00000000000000000000000000000000000000000000000000000000000000400000000000000000000000000000000000000000000000000000000000000000",
        "nonce": "0x85",
        "chainId": "0xaa36a7"
      },
      "additionalContracts": [],
      "isFixedGasLimit": false
    }
  ],
  "receipts": [
    {
      "status": "0x1",
      "cumulativeGasUsed": "0xb70b30",
      "logs": [],
      "logsBloom": "0x00000000000000000000000000000000000000000000000000000000000000000000000000000000000000000000000000000000000000000000000000000000000000000000000000000000000000000000000000000000000000000000000000000000000000000000000000000000000000000000000000000000000000000000000000000000000000000000000000000000000000000000000000000000000000000000000000000000000000000000000000000000000000000000000000000000000000000000000000000000000000000000000000000000000000000000000000000000000000000000000000000000000000000000000000000000",
      "type": "0x2",
      "transactionHash": "0x0af7136f735ce453d5ca7e5ba2150c5f3b2d1c9011c0a0787dda1586cccb97a6",
      "transactionIndex": "0x36",
      "blockHash": "0x3fb51856cfe3a2d3d971f80c7d848255bb151a3665236830a59e1d3838a30e71",
      "blockNumber": "0x61acc9",
      "gasUsed": "0x9cb1c",
      "effectiveGasPrice": "0xf5fd53ad",
      "from": "0x2b754def498d4b6adada538f01727ddf67d91a7d",
      "to": null,
      "contractAddress": "0xb09775b1ebfad5f3f7878cb0050b5425f94a574d"
    },
    {
      "status": "0x1",
      "cumulativeGasUsed": "0xb77245",
      "logs": [],
      "logsBloom": "0x00000000000000000000000000000000000000000000000000000000000000000000000000000000000000000000000000000000000000000000000000000000000000000000000000000000000000000000000000000000000000000000000000000000000000000000000000000000000000000000000000000000000000000000000000000000000000000000000000000000000000000000000000000000000000000000000000000000000000000000000000000000000000000000000000000000000000000000000000000000000000000000000000000000000000000000000000000000000000000000000000000000000000000000000000000000",
      "type": "0x2",
      "transactionHash": "0x4a97cb9651e3609bd499c97eaf99deac52954f3521187f6e69977659a0fbe31c",
      "transactionIndex": "0x37",
      "blockHash": "0x3fb51856cfe3a2d3d971f80c7d848255bb151a3665236830a59e1d3838a30e71",
      "blockNumber": "0x61acc9",
      "gasUsed": "0x6715",
      "effectiveGasPrice": "0xf5fd53ad",
      "from": "0x2b754def498d4b6adada538f01727ddf67d91a7d",
      "to": "0xbbc7b23ea518d4193bcad95e379799e60491c450",
      "contractAddress": null
    },
    {
      "status": "0x1",
      "cumulativeGasUsed": "0xb80516",
      "logs": [
        {
          "address": "0xbbc7b23ea518d4193bcad95e379799e60491c450",
          "topics": [
            "0xbc7cd75a20ee27fd9adebab32041f755214dbc6bffa90cc0225b39da2e5c2d3b",
            "0x000000000000000000000000b09775b1ebfad5f3f7878cb0050b5425f94a574d"
          ],
          "data": "0x",
          "blockHash": "0x3fb51856cfe3a2d3d971f80c7d848255bb151a3665236830a59e1d3838a30e71",
          "blockNumber": "0x61acc9",
          "transactionHash": "0x5721069f257f66c7582a85d32e734f0b3feeba92240a7ee7adc4e152ed684ba9",
          "transactionIndex": "0x38",
          "logIndex": "0x55",
          "removed": false
        }
      ],
      "logsBloom": "0x00000040000000000000000000000000400000000000000000000000000000000000000000000000100000000000000000000000000000000000000000000000000000000000000000000000000002000400000000000000000000000000000000000000000004002000000000000000000000000000000000000000000000000000000000000000000000008000000000000000000000000000000000000000000000000000000000000000000000000000000000000000000000000000000000000020000000000000000000000000000000000000000000000000000000000000000000000000000000000000000000000000000000000000000000000000",
      "type": "0x2",
      "transactionHash": "0x5721069f257f66c7582a85d32e734f0b3feeba92240a7ee7adc4e152ed684ba9",
      "transactionIndex": "0x38",
      "blockHash": "0x3fb51856cfe3a2d3d971f80c7d848255bb151a3665236830a59e1d3838a30e71",
      "blockNumber": "0x61acc9",
      "gasUsed": "0x92d1",
      "effectiveGasPrice": "0xf5fd53ad",
      "from": "0x2b754def498d4b6adada538f01727ddf67d91a7d",
      "to": "0xbbc7b23ea518d4193bcad95e379799e60491c450",
      "contractAddress": null
    }
  ],
  "libraries": [],
  "pending": [],
  "returns": {},
  "timestamp": 1722308816,
  "chain": 11155111,
  "commit": "1a171bf"
}